S01300004E6978696520436C6F636B2E7372656308
S11300000C94FE000C941B010C941B010C941B011A
S11300100C941B010C941B010C941B010C941B01EC
S11300200C941B010C941B010C941B010C941B01DC
S11300300C941B010C941B010C941B010C941B01CC
S11300400C941B010C941B010C941B010C941B01BC
S11300500C941B010C941B010C941B010C941B01AC
S11300600C941B010C941B010C941B010C941B019C
S11300700C941B010C941B010C941B010C941B018C
S11300800C941B010C941B010C941B010C941B017C
S11300900C941B010C941B010C941B010C941B016C
S11300A00C941B010C941B010C941B010C941B015C
S11300B00C941B010C941B010C941B010C941B014C
S11300C00C941B010C941B010C941B010C941B013C
S11300D00C941B010C941B010C941B010C941B012C
S11300E00C941B010C941B010C941B010C941B011C
S11300F00C941B010C941B010C941B010C941B010C
S11301000C941B010C941B010C941B010C941B01FB
S11301100C941B010C941B010C941B010C941B01EB
S11301200C941B010C941B010C941B010C941B01DB
S11301300C941B010C941B010C941B010C941B01CB
S11301400C941B010C941B010C941B010C941B01BB
S11301500C941B010C941B010C941B010C941B01AB
S11301600C941B010C941B010C941B010C941B019B
S11301700C941B010C941B010C941B010C941B018B
S11301800C941B010C941B010C941B010C941B017B
S11301900C941B010C941B010C941B010C941B016B
S11301A00C941B010C941B010C941B010C941B015B
S11301B00C941B010C941B010C941B010C941B014B
S11301C00C941B010C941B010C941B010C941B013B
S11301D00C941B010C941B010C941B010C941B012B
S11301E00C941B010C941B010C941B010C941B011B
S11301F00C941B010C941B010C941B0111241FBEB5
S1130200CFEFCDBFDFE2DEBF10E2A0E0B0E2E2E577
S1130210F8E002C005900D92A431B107D9F720E2AD
S1130220A4E1B0E201C01D92A232B207E1F70E943C
S1130230BC030C9427040C940000CF9394E0909397
S1130240660680FD90936506C82FC69561E087E039
S11302500E94E90360E08C2F0E94E903CF91089586
S1130260CF93C82F80E008C0E82FF0E0E050F04EB4
S11302709081C91721F08F5F8A30B0F301C0C82F75
S1130280C1FF04C080E28093450603C080E28093EE
S1130290460661E088E10E94E903C2FD02C0C3FF93
S11302A006C060E08C2F8C70880F0E94E903C0FFA9
S11302B004C080E18093450603C080E18093460634
S11302C0CF9108958FEF8093400697E09093600656
S11302D0809300068FE08093200680E1809361067E
S11302E082E00E94300108958FEC80934406E0E69A
S11302F0F6E084818C7F84838481836084838FE0AF
S1130300809324068FEF809304068FE00E941D01E2
S11303108FE00E9430010895CF93DF93EC01E881D0
S1130320F0E0E65FFF4D2081ED81F0E0E65FFF4DF8
S1130330908130E4939FC0011124822B8093440662
S1130340A0E6B6E014968C9114978C7F14968C9347
S1130350149714969C911497ED81F0E0E65FFF4D9D
S1130360808186958695892B14968C93E981F0E09B
S1130370E65FFF4D808180932406EA81F0E0E65F2A
S1130380FF4D808120E1829FC0011124EB81F0E0C8
S1130390E65FFF4D9081892B80930406EC81809168
S11303A01420E81731F0F0E0E65FFF4D80810E94F1
S11303B01D018C8180931420DF91CF910895FF92C9
S11303C00F931F93CF93DF93CDB7DEB72697CDBF9F
S11303D0DEBFFE01319686E0DF011D928A95E9F7C2
S11303E010E01EC0E1E0F0E0EC0FFD1FE80FF11D8E
S11303F010838F5F01C080E08630A0F3CE010196A8
S11304000E948C01E12FF0E0E050F04E80810E94C8
S11304103001EFE4F3EC3197F1F700C000001F5F07
S11304201A3048F30E94740100E616E06894FF2431
S1130430F4F8D8011596FC9283E60E943001EFE4AB
S1130440F3EC3197F1F700C00000D8011696FC9246
S113045080E090E00E948C0182E00E9430012696A8
S1130460CDBFDEBFDF91CF911F910F91FF90089513
S1130470CF93DF93EC019A8180911620981771F045
S113048089818093152002C00E94DF010E94B60278
S1130490FC019181809115209817B1F38A81809392
S11304A01620DF91CF910895CF93DF93CDB7DEB7B8
S11304B02697CDBFDEBFDC01AE014F5F5F4F86E004
S11304C0FA0111928A95E9F73C919DEC399F212D0F
S11304D011242695269526952D83220F822F880F89
S11304E0880F280F321B3E8311963C911197399F38
S11304F0212D11242695269526952B83220F822FB4
S1130500880F880F280F832F821B8C8312962C91BF
S1130510299F912D11249695969596959983990FD7
S1130520892F880F880F980F822F891B8A83309315
S1130530202020932120CA010E948C012696CDBF41
S1130540DEBFDF91CF910895E0E6F6E080E282839A
S113055088E1858B0895982F92959F70990F292F84
S1130560220F220F920F8F70890F08950F931F93FC
S1130570CF93DF930E940F0360E088E60E94250377
S113058080E00E94A0030E940F0361E088E60E94BD
S11305902503C0E00CC00C2F10E080E00E9474031F
S11305A00E94AB02F801E95EFF4D8083CF5FC73044
S11305B090F3D0E081E00E9474030E94AB02C95E14
S11305C0DF4D88830E941A0387E190E2DF91CF9187
S11305D01F910F910895CF93C82F0E940F0360E0DD
S11305E088E60E9425038EE00E94A0038C2F0E94BF
S11305F0A0030E941A03CF910895E1E8F6E091E088
S1130600908382E08083E0E8F6E095838583089513
S1130610E0E8F6E082E08583000086830895E0E860
S1130620F6E091E0958382E08583000096830000E4
S113063086830895E0E8F6E092E0968381E086837D
S113064000009583000085830895EF92FF920F9335
S11306501F93CF93DF9300D0CDB7DEB789836A832E
S113066089818830A8F189818937A0F517E010C005
S11306708981880F89838981882324F481E0809388
S1130680850603C081E0809386060E94080311500A
S11306901111EECF8A81813019F48093850603C04D
S11306A081E0809386060E9408030F2EF0E8EF2E67
S11306B0F6E0FF2EF02D01E0F7010283058380852B
S11306C0182F11700E940803F7010183812F03C0C2
S11306D082E001C082E00F900F90DF91CF911F91D3
S11306E00F91FF90EF9008951F93CF93DF93182FEE
S11306F0E0E8F6E081E0858382838583C0E0D8E08A
S11307000BC0E0E8F6E082E08583CC0F8085817041
S1130710C82B0E940803D150D111F3CF81E08093FC
S11307208106113019F48093850603C081E080931B
S113073086060E9408038C2FDF91CF911F910895A4
S1130740CF93DF93D82FC8E00DC0DD2324F481E0DC
S11307508093850603C081E0809386060E94080387
S1130760DD0FC150C111F1CF81E0809385060E9455
S11307700803DF91CF9108952FE38DE093E021509A
S113078080409040E1F700C000000E9462010E9496
S11307901C040E94FD020E94A40280E00E94EB025D
S11307A060E080EE0E94E9030E9474018091680673
S11307B085FFFCCF8FE493EC0197F1F700C00000B4
S11307C00E94B602EC010E945402CE010E9438023B
S11307D0EDCF662341F0809590911F20892380936B
S11307E01F2020E01DC090911F20982B90931F2064
S11307F0892BF7CF80FF03C098E090938506E0E64D
S1130800F6E098E0958333E03A95F1F70000909391
S11308108606968393E09A95F1F7000086952F5FFC
S1130820283040F3E0E8F6E084E0858333E03A954D
S1130830F1F700008683089588E0809361068CE0D8
S11308408093810661E08FEF0E94E9030895F89494
S1050850FFCFD4
S11308526E6B6D75634D25700202080009010E0668
S10708620A020C0472
S9030000FC
