S01300004E6978696520436C6F636B2E7372656308
S11300000C94FE000C941B010C941B010C941B011A
S11300100C941B010C941B010C941B010C941B01EC
S11300200C941B010C941B010C941B010C941B01DC
S11300300C941B010C941B010C941B010C941B01CC
S11300400C941B010C941B010C941B010C941B01BC
S11300500C941B010C941B010C941B010C941B01AC
S11300600C941B010C941B010C941B010C941B019C
S11300700C941B010C941B010C941B010C941B018C
S11300800C941B010C941B010C941B010C941B017C
S11300900C941B010C941B010C941B010C941B016C
S11300A00C941B010C941B010C941B010C941B015C
S11300B00C941B010C941B010C941B010C941B014C
S11300C00C941B010C941B010C941B010C941B013C
S11300D00C941B010C941B010C941B010C941B012C
S11300E00C941B010C941B010C941B010C941B011C
S11300F00C941B010C941B010C941B010C941B010C
S11301000C941B010C941B010C941B010C941B01FB
S11301100C941B010C941B010C941B010C941B01EB
S11301200C941B010C941B010C941B010C941B01DB
S11301300C941B010C941B010C941B010C941B01CB
S11301400C941B010C941B010C941B010C941B01BB
S11301500C941B010C941B010C941B010C941B01AB
S11301600C941B010C941B010C941B010C941B019B
S11301700C941B010C941B010C941B010C941B018B
S11301800C941B010C941B010C941B010C941B017B
S11301900C941B010C941B010C941B010C941B016B
S11301A00C941B010C941B010C941B010C941B015B
S11301B00C941B010C941B010C941B010C941B014B
S11301C00C941B010C941B010C941B010C941B013B
S11301D00C941B010C941B010C941B010C941B012B
S11301E00C941B010C941B010C941B010C941B011B
S11301F00C941B010C941B010C941B0111241FBEB5
S1130200CFEFCDBFDFE2DEBF10E2A0E0B0E2E0EE70
S1130210F4E002C005900D92A030B107D9F720E2B6
S1130220A0E0B0E201C01D92A130B207E1F70E9444
S1130230FA010C946E020C9400008FEF8093400638
S113024097E090936006809300068FE080932006E9
S113025080E1809361060895CF93C82FE0E4F6E02F
S113026080E2868380E1868361E088E10E94300237
S1130270C1FF03C080E280934506C2FD02C0C3FFF4
S113028006C060E08C2F8C70880F0E943002C0FF83
S113029003C080E180934506CF910895E0E6F6E03F
S11302A080E2828388E1858B0895CF93C82F0E94D2
S11302B0790160E088E60E948F018EE00E94DE01F1
S11302C08C2F0E94DE010E948401CF910895E1E801
S11302D0F6E091E0908382E08083E0E8F6E09583A5
S11302E085830895E0E8F6E082E085830000868354
S11302F00895E0E8F6E091E0958382E085830000CC
S11303009683000086830895E0E8F6E092E0968301
S113031081E0868300009583000085830895EF9231
S1130320FF920F931F93CF93DF9300D0CDB7DEB727
S113033089836A8389818830A8F189818937A0F506
S113034017E010C08981880F89838981882324F468
S113035081E08093850603C081E0809386060E9435
S1130360720111501111EECF8A81813019F48093FA
S1130370850603C081E0809386060E9472010F2ED9
S1130380F0E8EF2EF6E0FF2EF02D01E0F7010283F6
S113039005838085182F11700E947201F701018373
S11303A0812F03C082E001C082E00F900F90DF91A3
S11303B0CF911F910F91FF90EF900895CF93DF930A
S11303C0D82FC8E00DC0DD2324F481E08093850696
S11303D003C081E0809386060E947201DD0FC15044
S11303E0C111F1CF81E0809385060E947201DF91F3
S11303F0CF9108952FE38DE093E021508040904009
S1130400E1F700C000000E941D010E9463020E94E7
S113041067010E944E0180E00E94550160E080EC7B
S11304200E943002C0E08091680685FFFCCF8C2FCB
S11304300E942C018C2F90E001968F709078992364
S113044024F40197806F9F6F0196C82F2FEF80E7E8
S113045092E0215080409040E1F700C00000E3CFDB
S1130460662341F080959091002089238093002099
S113047020E01DC090910020982B90930020892BA0
S1130480F7CF80FF03C098E090938506E0E6F6E09E
S113049098E0958333E03A95F1F70000909386064F
S11304A0968393E09A95F1F7000086952F5F2830A4
S11304B040F3E0E8F6E084E0858333E03A95F1F731
S11304C000008683089588E0809361068CE0809321
S11304D0810661E08FEF0E9430020895F894FFCF07
S9030000FC
